:100000000C9463000C948B000C948B000C948B006C
:100010000C948B000C948B000C948B000C948B0034
:100020000C948B000C948B000C948B000C948B0024
:100030000C948B000C948B000C948B000C948B0014
:100040000C944C020C948B000C94F9030C948B00D0
:100050000C948B000C948B000C948B000C948B00F4
:100060000C948B000C948B000000000024002700EF
:100070002A0000000000250028002B0000000000DE
:1000800023002600290004040404040404040202DA
:100090000202020203030303030301020408102007
:1000A0004080010204081020010204081020000012
:1000B0000007000201000003040600000000000029
:1000C00000008D00420511241FBECFEFD4E0DEBF3B
:1000D000CDBF11E0A0E0B1E0E8E7FEE002C005908E
:1000E0000D92A832B107D9F711E0A8E2B1E001C042
:1000F0001D92A13DB107E1F710E0C6ECD0E004C0CD
:100100002297FE010E943607C23CD107C9F70E9420
:1001100045020C943A070C9400000895FF920F9347
:100120001F938C01F62EFC0160832183328343836D
:10013000548360E472E48FE090E00E940507F801C8
:10014000368325838F2D60E00E943D031F910F9120
:10015000FF9008954F925F926F927F928F929F923D
:10016000AF92BF92CF92DF92EF92FF920F931F93C5
:10017000CF93DF932C01FC01C581D68126970E9485
:10018000A0023B014C01CE01880F991F8C0F9D1FCF
:100190005C01CC24B7FCC094DC2CF20180810E946D
:1001A000AA03892BC9F1E618F70808091909EA1406
:1001B000FB040C051D0580F50E94A0027B018C014B
:1001C000ECCFCE010E94F502F20180810E94AA03C9
:1001D000002E02C0880F991F0A94E2F7E82AF92A34
:1001E0000F5F1F4F0830110561F7CE01880F991F6F
:1001F0000E94F5028E2DDF91CF911F910F91FF90FC
:10020000EF90DF90CF90BF90AF909F908F907F90B6
:100210006F905F904F900895CE0162E070E00E9471
:10022000D006CB0106970E94F502EE24FF2400E0E1
:1002300010E0C7CFDF92EF92FF920F931F93CF93FF
:10024000DF93EC0189819A81AB81BC810097A10584
:10025000B10519F420E030E03EC0ED80FE808AEF69
:100260009FEFE80EF91E888161E00E943D038881BE
:1002700060E00E945D03C7010E94F502DD24D39473
:1002800000E010E08D2D807519F0888161E002C0DA
:10029000888160E00E945D03C7010E94F502DD0CC9
:1002A0000F5F1F4F0830110569F7888161E00E94D8
:1002B0005D03C7010E94F502888161E00E943D0351
:1002C000CE010E94AA00182F00E0CE010E94AA00D1
:1002D0009801280F311DC901DF91CF911F910F9116
:1002E000FF90EF90DF90089564E670E080E090E08A
:1002F0000E94CB0288E291E00E941A0190933001A3
:1003000080932F0190FF05C08EEB91E060E071E0DB
:1003100004C08EEB91E062E071E00E94B305809131
:100320002F019091300191FF05C08EEB91E064E0C8
:1003300071E004C08EEB91E062E071E00E94B305D1
:1003400080912F019091300192FF05C08EEB91E0DA
:1003500066E071E004C08EEB91E062E071E00E9423
:10036000B30580912F019091300193FF05C08EEB72
:1003700091E068E071E004C08EEB91E062E071E032
:100380000E94B30580912F019091300194FF05C028
:100390008EEB91E06AE071E004C08EEB91E062E0E8
:1003A00071E00E94B30580912F019091300195FF7B
:1003B00005C08EEB91E06CE071E004C08EEB91E043
:1003C00062E071E00E94B30580912F0180FF05C0BB
:1003D0008EEB91E06EE071E004C08EEB91E062E0A4
:1003E00071E00E94B30580912F0181FF05C08EEB63
:1003F00091E060E171E004C08EEB91E062E071E0B9
:100400000E94B30580912F0182FF05C08EEB91E021
:1004100062E171E004C08EEB91E062E071E00E9465
:10042000B30580912F0183FF05C08EEB91E064E15D
:1004300071E004C08EEB91E062E071E00E94B305D0
:100440008EEB91E066E171E00E94B30540912F01CF
:100450005091300160E070E08EEB91E022E030E0FE
:100460000E94A606089588E291E068E020E835E25F
:1004700040E050E00E948E008EEB91E040E05BE4B3
:1004800060E070E00E94360408950E9403030E9419
:1004900033020E947401FDCF1F920F920FB60F928C
:1004A00011242F933F934F935F936F937F938F9379
:1004B0009F93AF93BF9320913501309136014091C6
:1004C00037015091380170913901DA01C901029662
:1004D000A11DB11D672F6A5F6D3730F06D57DA01CE
:1004E000C9010396A11DB11D6093390180933501A7
:1004F00090933601A0933701B09338018091310178
:1005000090913201A0913301B09134010196A11D67
:10051000B11D8093310190933201A0933301B093C8
:100520003401BF91AF919F918F917F916F915F91B6
:100530004F913F912F910F900FBE0F901F901895E4
:100540006FB7F89486B590E0A0E0B0E0A89B08C033
:100550000097A105B10521F480E091E0A0E0B0E0B2
:100560002091310130913201409133015091340199
:100570006FBF542F432F322F2227280F391F4A1FB6
:100580005B1F83E0220F331F441F551F8A95D1F74D
:10059000B901CA010895EF92FF920F931F937B0157
:1005A0008C018FB7F89440913501509136016091DC
:1005B0003701709138018FBF2FB7F89480913501C2
:1005C00090913601A0913701B09138012FBF841B63
:1005D000950BA60BB70BE816F9060A071B0760F781
:1005E0001F910F91FF90EF900895019759F0019797
:1005F00049F0FC01EE0FFF1F31978FB7F894319748
:10060000F1F78FBF0895789484B5826084BD84B576
:10061000816084BD85B5826085BD85B5816085BDFD
:10062000EEE6F0E0808181608083E1E8F0E08081A7
:1006300082608083808181608083E0E8F0E0808157
:1006400081608083E1EBF0E0808184608083E0EB77
:10065000F0E0808181608083EAE7F0E0808184605F
:1006600080838081826080838081816080838081BB
:10067000806880831092C1000895282F30E0C9015E
:1006800086569F4FFC0194912A573F4FF901849160
:10069000882391F0E82FF0E0EE0FFF1FE859FF4F9D
:1006A000A591B491662329F48C91909589238C931C
:1006B00008958C91892B8C930895482F50E0CA019E
:1006C00082559F4FFC012491CA0186569F4FFC0121
:1006D00094914A575F4FFA0134913323D1F1222389
:1006E00031F1233021F4809180008F7705C02430D0
:1006F00031F4809180008F7D8093800018C021307C
:1007000019F484B58F7704C0223021F484B58F7D2D
:1007100084BD0DC0263021F48091B0008F7705C0D4
:10072000273029F48091B0008F7D8093B000E32FB3
:10073000F0E0EE0FFF1FEE58FF4FA591B491662336
:1007400029F48C91909589238C9308958C91892B11
:100750008C930895682F70E0CB0182559F4FFC0168
:100760002491CB0186569F4FFC0144916A577F4FDD
:10077000FB019491992319F420E030E038C0222342
:1007800031F1233021F4809180008F7705C024302F
:1007900031F4809180008F7D8093800018C02130DB
:1007A00019F484B58F7704C0223021F484B58F7D8D
:1007B00084BD0DC0263021F48091B0008F7705C034
:1007C000273029F48091B0008F7D8093B000892F6D
:1007D00090E0880F991F84589F4FFC01A591B49118
:1007E0008C9120E030E0842311F021E030E0C90159
:1007F00008951F920F920FB60F9211242F933F93DB
:100800004F935F936F937F938F939F93AF93BF9318
:10081000EF93FF934091C600E091BA01F091BB01C4
:10082000CF01019660E870E00E94D0069C018091A3
:10083000BC019091BD012817390739F0E65CFE4FE5
:1008400040833093BB012093BA01FF91EF91BF9198
:10085000AF919F918F917F916F915F914F913F9158
:100860002F910F900FBE0F901F9018955F926F926F
:100870007F928F929F92AF92BF92CF92DF92EF9230
:10088000FF920F931F93CF93DF93EC013A014B013B
:10089000413281EA580787E0680780E078070CF06A
:1008A0007FC060E472E48FE090E0A40193010E94B5
:1008B00005072150304040405040CA01B90122E0B4
:1008C00030E040E050E00E94050759016A01A601AE
:1008D0009501209530954095509594E0220F331F57
:1008E000441F551F9A95D1F760E072E18AE790E0C6
:1008F0000E940507CA01B9012FEF30E040E050E047
:100900000E94B106A40193010E940507C90181500C
:100910009F4F181619061CF4522E5A9403C05524E2
:100920005394521A60E874E88EE190E0A4019301B8
:100930000E9405072150304040405040CA01B90193
:1009400022E030E040E050E00E940507209530951D
:100950004095509583E0220F331F441F551F8A9501
:10096000D1F760E072E18AE790E00E940507CA01D2
:10097000B9012FEF30E040E050E00E94B106A40141
:1009800093010E940507C90181509F4F181619064F
:100990001CF4822F815002C081E0821B851500F576
:1009A000E885F98581E090E00A8802C0880F991FE8
:1009B0000A94E2F7808360E874E88EE190E0A40195
:1009C00093010E9405072150304040405040CA0129
:1009D000B90122E030E040E050E00E94050704C089
:1009E000E885F98510829501EC81FD813083EE81E7
:1009F000FF812083EA85FB85208141E050E0CA0128
:100A00000E8402C0880F991F0A94E2F7282B2083D6
:100A1000EA85FB852081CA010F8402C0880F991FD7
:100A20000A94E2F7282B2083EA85FB8580810888D9
:100A300002C0440F551F0A94E2F7842B8083DF9194
:100A4000CF911F910F91FF90EF90DF90CF90BF90CB
:100A5000AF909F908F907F906F905F900895FC0172
:100A6000A085B18521898C9190E0022E02C09595D8
:100A700087950A94E2F780FFF6CF0484F585E02D90
:100A80006083089581E291E09093BF018093BE015D
:100A90008AE391E09093C1018093C00185EC90E0DE
:100AA0009093C3018093C20184EC90E09093C501C0
:100AB0008093C40180EC90E09093C7018093C601BD
:100AC00081EC90E09093C9018093C80186EC90E09E
:100AD0009093CB018093CA0184E08093CC0183E0A2
:100AE0008093CD0187E08093CE0185E08093CF0194
:100AF00081E08093D00108950F931F93CF93DF93EC
:100B00008C01EB0109C02196D801ED91FC91019077
:100B1000F081E02DC801099568816623A1F7DF9176
:100B2000CF911F910F910895EF92FF920F931F9312
:100B3000CF93DF938C017B01EA010CC0D7016D914B
:100B40007D01D801ED91FC910190F081E02DC8016B
:100B500009952197209791F7DF91CF911F910F91E0
:100B6000FF90EF900895DC01ED91FC910280F381FC
:100B7000E02D099508950F931F938C01DC01ED91F1
:100B8000FC910190F081E02D6DE00995D801ED9187
:100B9000FC910190F081E02DC8016AE009951F9158
:100BA0000F9108952F923F924F925F926F927F9292
:100BB0008F929F92AF92BF92CF92DF92EF92FF926D
:100BC0000F931F93DF93CF93CDB7DEB7A0970FB6E8
:100BD000F894DEBF0FBECDBF1C016A017B01411539
:100BE00051056105710549F4DC01ED91FC9101901D
:100BF000F081E02D60E3099554C0882499245401C4
:100C0000422E55246624772401E010E00C0F1D1FAE
:100C1000080D191DC701B601A30192010E94E30648
:100C2000F80160830894811C911CA11CB11CC701B0
:100C3000B601A30192010E94E306C901DA016C0129
:100C40007D01C114D104E104F104F1F681E0E82E44
:100C5000F12CEC0EFD1EE80CF91C3E010894611C01
:100C6000711CD501C4010197A109B1096C01C81813
:100C7000D90814C0F601EE0DFF1D60816A3010F432
:100C8000605D01C0695CD101ED91FC910190F08142
:100C9000E02DC10109950894E108F1086E147F0464
:100CA00049F7A0960FB6F894DEBF0FBECDBFCF9127
:100CB000DF911F910F91FF90EF90DF90CF90BF9049
:100CC000AF909F908F907F906F905F904F903F90EC
:100CD0002F900895EF92FF920F931F93CF93DF937E
:100CE000EC017A018B0177FF0FC0E881F981019057
:100CF000F081E02D6DE2099510950095F094E09457
:100D0000E11CF11C011D111DCE01B801A7012AE053
:100D10000E94D205DF91CF911F910F91FF90EF902C
:100D20000895DC012115310541F4ED91FC9101900C
:100D3000F081E02D642F099508952A30310519F4CA
:100D40000E946A0608950E94D20508950F931F938A
:100D50008C010E949106C8010E94BB051F910F9152
:100D60000895629FD001739FF001829FE00DF11DF5
:100D7000649FE00DF11D929FF00D839FF00D749F15
:100D8000F00D659FF00D9927729FB00DE11DF91FC1
:100D9000639FB00DE11DF91FBD01CF01112408951E
:100DA00097FB092E07260AD077FD04D049D006D03C
:100DB00000201AF4709561957F4F0895F6F790958D
:100DC00081959F4F0895A1E21A2EAA1BBB1BFD011E
:100DD0000DC0AA1FBB1FEE1FFF1FA217B307E4071A
:100DE000F50720F0A21BB30BE40BF50B661F771F72
:100DF000881F991F1A9469F7609570958095909552
:100E00009B01AC01BD01CF01089597FB092E05267A
:100E10000ED057FD04D0D7DF0AD0001C38F450950F
:100E20004095309521953F4F4F4F5F4F0895F6F70E
:100E300090958095709561957F4F8F4F9F4F089546
:100E4000AA1BBB1B51E107C0AA1FBB1FA617B707F0
:100E500010F0A61BB70B881F991F5A95A9F780950C
:100E60009095BC01CD010895EE0FFF1F0590F49100
:080E7000E02D0994F894FFCF76
:100E780030002000310032003300340035003600E5
:100E880037003800390020202020202000000000F2
:080E9800002F057C0594050004
:00000001FF
