:100000000C9463000C947F020C94AC020C948B0053
:100010000C948B000C948B000C948B000C948B0034
:100020000C948B000C948B000C948B000C948B0024
:100030000C948B000C948B000C948B000C948B0014
:100040000C94D9020C948B000C945C040C948B00DF
:100050000C948B000C948B000C948B000C948B00F4
:100060000C948B000C948B000000000024002700EF
:100070002A0000000000250028002B0000000000DE
:1000800023002600290004040404040404040202DA
:100090000202020203030303030301020408102007
:1000A0004080010204081020010204081020000012
:1000B0000007000201000003040600000000000029
:1000C00000008D00A50511241FBECFEFD4E0DEBFD8
:1000D000CDBF11E0A0E0B1E0EEE3FFE002C005908B
:1000E0000D92A832B107D9F711E0A8E2B1E001C042
:1000F0001D92A63DB107E1F710E0C6ECD0E004C0C8
:100100002297FE010E949907C23CD107C9F70E94BD
:1001100055020C949D070C9400000895FF920F93D4
:100120001F938C01F62EFC0160832183328343836D
:10013000548360E472E48FE090E00E946807F80165
:10014000368325838F2D60E00E94A0031F910F91BD
:10015000FF9008954F925F926F927F928F929F923D
:10016000AF92BF92CF92DF92EF92FF920F931F93C5
:10017000CF93DF932C01FC01C581D68126970E9485
:100180002D033B014C01CE01880F991F8C0F9D1F41
:100190005C01CC24B7FCC094DC2CF20180810E946D
:1001A0000D04892BC9F1E618F70808091909EA14A2
:1001B000FB040C051D0580F50E942D037B018C01BD
:1001C000ECCFCE010E945803F20180810E940D0401
:1001D000002E02C0880F991F0A94E2F7E82AF92A34
:1001E0000F5F1F4F0830110561F7CE01880F991F6F
:1001F0000E9458038E2DDF91CF911F910F91FF9098
:10020000EF90DF90CF90BF90AF909F908F907F90B6
:100210006F905F904F900895CE0162E070E00E9471
:100220003307CB0106970E945803EE24FF2400E019
:1002300010E0C7CFDF92EF92FF920F931F93CF93FF
:10024000DF93EC0189819A81AB81BC810097A10584
:10025000B10519F420E030E03EC0ED80FE808AEF69
:100260009FEFE80EF91E888161E00E94A00388815B
:1002700060E00E94C003C7010E945803DD24D394AC
:1002800000E010E08D2D807519F0888161E002C0DA
:10029000888160E00E94C003C7010E945803DD0C02
:1002A0000F5F1F4F0830110569F7888161E00E94D8
:1002B000C003C7010E945803888161E00E94A00327
:1002C000CE010E94AA00182F00E0CE010E94AA00D1
:1002D0009801280F311DC901DF91CF911F910F9116
:1002E000FF90EF90DF90089581E0809331010895B1
:1002F00080913101813009F0BAC01092310188E259
:1003000091E00E941A019093300180932F0190FF99
:1003100005C083EC91E060E071E004C083EC91E003
:1003200062E071E00E94160680912F0190913001E9
:1003300091FF05C083EC91E064E071E004C083ECC0
:1003400091E062E071E00E94160680912F01909189
:10035000300192FF05C083EC91E066E071E004C0DB
:1003600083EC91E062E071E00E94160680912F011B
:100370009091300193FF05C083EC91E068E071E05B
:1003800004C083EC91E062E071E00E941606809167
:100390002F019091300194FF05C083EC91E06AE059
:1003A00071E004C083EC91E062E071E00E94160607
:1003B00080912F019091300195FF05C083EC91E071
:1003C0006CE071E004C083EC91E062E071E00E94B7
:1003D000160680912F0180FF05C083EC91E06EE04E
:1003E00071E004C083EC91E062E071E00E941606C7
:1003F00080912F0181FF05C083EC91E060E171E005
:1004000004C083EC91E062E071E00E9416068091E6
:100410002F0182FF05C083EC91E062E171E004C02E
:1004200083EC91E062E071E00E94160680912F015A
:1004300083FF05C083EC91E064E171E004C083ECCC
:1004400091E062E071E00E94160683EC91E066E1C3
:1004500071E00E94160640912F015091300160E03A
:1004600070E083EC91E022E030E00E9409070895FB
:1004700088E291E063E020E835E240E050E00E944D
:100480008E0083EC91E040E05BE460E070E00E946D
:10049000990482E060E00E94A00380E064E771E0DC
:1004A00042E050E00E945C0208950E9466030E94B0
:1004B00038020E947801FDCF823000F5E82FF0E08D
:1004C000EE0FFF1FEE5CFE4F71836083882319F0EF
:1004D0008130A1F408C0809169008C7F842B8093C7
:1004E0006900E89A089580916900440F551F440FF0
:1004F000551F837F842B80936900E99A08951F928A
:100500000F920FB60F9211242F933F934F935F9347
:100510006F937F938F939F93AF93BF93EF93FF93CB
:100520008091320190913301892B29F0E0913201C1
:10053000F09133010995FF91EF91BF91AF919F9198
:100540008F917F916F915F914F913F912F910F907C
:100550000FBE0F901F9018951F920F920FB60F921B
:1005600011242F933F934F935F936F937F938F93B8
:100570009F93AF93BF93EF93FF938091340190913A
:100580003501892B29F0E0913401F091350109956D
:10059000FF91EF91BF91AF919F918F917F916F915B
:1005A0005F914F913F912F910F900FBE0F901F9031
:1005B00018951F920F920FB60F9211242F933F930D
:1005C0004F935F936F937F938F939F93AF93BF935B
:1005D00020913A0130913B0140913C0150913D0105
:1005E00070913E01DA01C9010296A11DB11D672F6C
:1005F0006A5F6D3730F06D57DA01C9010396A11DAE
:10060000B11D60933E0180933A0190933B01A0930A
:100610003C01B0933D018091360190913701A0914A
:100620003801B09139010196A11DB11D80933601A9
:1006300090933701A0933801B0933901BF91AF91E6
:100640009F918F917F916F915F914F913F912F91EA
:100650000F900FBE0F901F9018956FB7F89486B546
:1006600090E0A0E0B0E0A89B08C00097A105B1050C
:1006700021F480E091E0A0E0B0E0209136013091DB
:10068000370140913801509139016FBF542F432FEA
:10069000322F2227280F391F4A1F5B1F83E0220FAA
:1006A000331F441F551F8A95D1F7B901CA01089518
:1006B000019759F0019749F0FC01EE0FFF1F3197A8
:1006C0008FB7F8943197F1F78FBF0895789484B578
:1006D000826084BD84B5816084BD85B5826085BD3E
:1006E00085B5816085BDEEE6F0E080818160808324
:1006F000E1E8F0E080818260808380818160808396
:10070000E0E8F0E0808181608083E1EBF0E08081CF
:1007100084608083E0EBF0E0808181608083EAE7A1
:10072000F0E080818460808380818260808380812A
:10073000816080838081806880831092C1000895E9
:10074000282F30E0C90186569F4FFC0194912A570B
:100750003F4FF9018491882391F0E82FF0E0EE0FEC
:10076000FF1FE859FF4FA591B491662329F48C919E
:10077000909589238C9308958C91892B8C9308955F
:10078000482F50E0CA0182559F4FFC012491CA01B5
:1007900086569F4FFC0194914A575F4FFA0134915E
:1007A0003323D1F1222331F1233021F480918000D1
:1007B0008F7705C0243031F4809180008F7D809345
:1007C000800018C0213019F484B58F7704C022301E
:1007D00021F484B58F7D84BD0DC0263021F4809135
:1007E000B0008F7705C0273029F48091B0008F7D4D
:1007F0008093B000E32FF0E0EE0FFF1FEE58FF4FA5
:10080000A591B491662329F48C91909589238C93BA
:1008100008958C91892B8C930895682F70E0CB01FB
:1008200082559F4FFC012491CB0186569F4FFC01BE
:1008300044916A577F4FFB019491992319F420E06A
:1008400030E038C0222331F1233021F48091800040
:100850008F7705C0243031F4809180008F7D8093A4
:10086000800018C0213019F484B58F7704C022307D
:1008700021F484B58F7D84BD0DC0263021F4809194
:10088000B0008F7705C0273029F48091B0008F7DAC
:100890008093B000892F90E0880F991F84589F4F54
:1008A000FC01A591B4918C9120E030E0842311F0FB
:1008B00021E030E0C90108951F920F920FB60F9208
:1008C00011242F933F934F935F936F937F938F9355
:1008D0009F93AF93BF93EF93FF934091C600E09136
:1008E000BF01F091C001CF01019660E870E00E9465
:1008F00033079C018091C1019091C20128173907EB
:1009000039F0E15CFE4F40833093C0012093BF017A
:10091000FF91EF91BF91AF919F918F917F916F91D7
:100920005F914F913F912F910F900FBE0F901F90AD
:1009300018955F926F927F928F929F92AF92BF9223
:10094000CF92DF92EF92FF920F931F93CF93DF939B
:10095000EC013A014B01413281EA580787E0680710
:1009600080E078070CF07FC060E472E48FE090E0F4
:10097000A40193010E94680721503040404050403C
:10098000CA01B90122E030E040E050E00E9468076F
:1009900059016A01A6019501209530954095509521
:1009A00094E0220F331F441F551F9A95D1F760E042
:1009B00072E18AE790E00E946807CA01B9012FEF4F
:1009C00030E040E050E00E941407A40193010E942F
:1009D0006807C90181509F4F181619061CF4522E42
:1009E0005A9403C055245394521A60E874E88EE177
:1009F00090E0A40193010E946807215030404040DC
:100A00005040CA01B90122E030E040E050E00E94CD
:100A10006807209530954095509583E0220F331F4D
:100A2000441F551F8A95D1F760E072E18AE790E094
:100A30000E946807CA01B9012FEF30E040E050E0A2
:100A40000E941407A40193010E946807C901815004
:100A50009F4F181619061CF4822F815002C081E0A6
:100A6000821B851500F5E885F98581E090E00A880C
:100A700002C0880F991F0A94E2F7808360E874E847
:100A80008EE190E0A40193010E946807215030405C
:100A900040405040CA01B90122E030E040E050E05F
:100AA0000E94680704C0E885F98510829501EC81F1
:100AB000FD813083EE81FF812083EA85FB852081E3
:100AC00041E050E0CA010E8402C0880F991F0A94C9
:100AD000E2F7282B2083EA85FB852081CA010F8459
:100AE00002C0880F991F0A94E2F7282B2083EA8519
:100AF000FB858081088802C0440F551F0A94E2F7E5
:100B0000842B8083DF91CF911F910F91FF90EF9005
:100B1000DF90CF90BF90AF909F908F907F906F901D
:100B20005F900895FC01A085B18521898C9190E0AA
:100B3000022E02C0959587950A94E2F780FFF6CFC2
:100B40000484F585E02D6083089581E291E090931F
:100B5000C4018093C3018FE391E09093C601809319
:100B6000C50185EC90E09093C8018093C70184ECA7
:100B700090E09093CA018093C90180EC90E090933B
:100B8000CC018093CB0181EC90E09093CE018093D7
:100B9000CD0186EC90E09093D0018093CF0184E06A
:100BA0008093D10183E08093D20187E08093D301C9
:100BB00085E08093D40181E08093D50108950F935F
:100BC0001F93CF93DF938C01EB0109C02196D801CD
:100BD000ED91FC910190F081E02DC80109956881AB
:100BE0006623A1F7DF91CF911F910F910895EF92A6
:100BF000FF920F931F93CF93DF938C017B01EA0148
:100C00000CC0D7016D917D01D801ED91FC9101904F
:100C1000F081E02DC80109952197209791F7DF9188
:100C2000CF911F910F91FF90EF900895DC01ED910E
:100C3000FC910280F381E02D099508950F931F9395
:100C40008C01DC01ED91FC910190F081E02D6DE0D3
:100C50000995D801ED91FC910190F081E02DC8013A
:100C60006AE009951F910F9108952F923F924F923C
:100C70005F926F927F928F929F92AF92BF92CF922C
:100C8000DF92EF92FF920F931F93DF93CF93CDB735
:100C9000DEB7A0970FB6F894DEBF0FBECDBF1C0124
:100CA0006A017B01411551056105710549F4DC01BB
:100CB000ED91FC910190F081E02D60E3099554C025
:100CC000882499245401422E55246624772401E077
:100CD00010E00C0F1D1F080D191DC701B601A3015F
:100CE00092010E944607F80160830894811C911CC0
:100CF000A11CB11CC701B601A30192010E944607C5
:100D0000C901DA016C017D01C114D104E104F104CF
:100D1000F1F681E0E82EF12CEC0EFD1EE80CF91C3A
:100D20003E010894611C711CD501C4010197A10901
:100D3000B1096C01C818D90814C0F601EE0DFF1DE9
:100D400060816A3010F4605D01C0695CD101ED9191
:100D5000FC910190F081E02DC10109950894E10812
:100D6000F1086E147F0449F7A0960FB6F894DEBF21
:100D70000FBECDBFCF91DF911F910F91FF90EF90EC
:100D8000DF90CF90BF90AF909F908F907F906F90AB
:100D90005F904F903F902F900895EF92FF920F93A6
:100DA0001F93CF93DF93EC017A018B0177FF0FC084
:100DB000E881F9810190F081E02D6DE209951095AF
:100DC0000095F094E094E11CF11C011D111DCE0171
:100DD000B801A7012AE00E943506DF91CF911F914B
:100DE0000F91FF90EF900895DC012115310541F43A
:100DF000ED91FC910190F081E02D642F099508950B
:100E00002A30310519F40E94CD0608950E94350656
:100E100008950F931F938C010E94F406C8010E944D
:100E20001E061F910F910895629FD001739FF001DC
:100E3000829FE00DF11D649FE00DF11D929FF00D6A
:100E4000839FF00D749FF00D659FF00D9927729FA1
:100E5000B00DE11DF91F639FB00DE11DF91FBD012C
:100E6000CF011124089597FB092E07260AD077FD9C
:100E700004D049D006D000201AF4709561957F4FB8
:100E80000895F6F7909581959F4F0895A1E21A2E47
:100E9000AA1BBB1BFD010DC0AA1FBB1FEE1FFF1F1E
:100EA000A217B307E407F50720F0A21BB30BE40B6E
:100EB000F50B661F771F881F991F1A9469F76095B5
:100EC0007095809590959B01AC01BD01CF0108956F
:100ED00097FB092E05260ED057FD04D0D7DF0AD088
:100EE000001C38F450954095309521953F4F4F4F59
:100EF0005F4F0895F6F790958095709561957F4FB7
:100F00008F4F9F4F0895AA1BBB1B51E107C0AA1F1B
:100F1000BB1FA617B70710F0A61BB70B881F991F9A
:100F20005A95A9F780959095BC01CD010895EE0FD3
:0E0F3000FF1F0590F491E02D0994F894FFCF77
:100F3E00300020003100320033003400350036001E
:100F4E00370038003900202020202020000000002B
:080F5E00009205DF05F7050014
:00000001FF
